22:29:54.763473 ARP, Request who-has 10.181.93.101 tell 10.181.92.1, length 42
	0x0000:  ffff ffff ffff 2cc8 1bbb d6c4 0806 0001  ......,.........
	0x0010:  0800 0604 0001 2cc8 1bbb d6c4 0ab5 5c01  ......,.......\.
	0x0020:  0000 0000 0000 0ab5 5d65 0000 0000 0000  ........]e......
	0x0030:  0000 0000 0000 0000                      ........
22:29:55.364464 IP 10.181.88.186.54150 > ns1.anycast.pavlovmedia.net.domain: 4377+ PTR? 101.93.181.10.in-addr.arpa. (44)
	0x0000:  2cc8 1bbb d6c4 a078 17aa fa16 0800 4500  ,......x......E.
	0x0010:  0048 dc71 0000 4011 21b7 0ab5 58ba 42fd  .H.q..@.!...X.B.
	0x0020:  d610 d386 0035 0034 8dde 1119 0100 0001  .....5.4........
	0x0030:  0000 0000 0000 0331 3031 0239 3303 3138  .......101.93.18
	0x0040:  3102 3130 0769 6e2d 6164 6472 0461 7270  1.10.in-addr.arp
	0x0050:  6100 000c 0001                           a.....
22:29:55.386425 IP ns1.anycast.pavlovmedia.net.domain > 10.181.88.186.54150: 4377 NXDomain* 0/1/0 (94)
	0x0000:  a078 17aa fa16 2cc8 1bbb d6c4 0800 4500  .x....,.......E.
	0x0010:  007a 63de 0000 3d11 9d18 42fd d610 0ab5  .zc...=...B.....
	0x0020:  58ba 0035 d386 0066 5395 1119 8583 0001  X..5...fS.......
	0x0030:  0000 0001 0000 0331 3031 0239 3303 3138  .......101.93.18
	0x0040:  3102 3130 0769 6e2d 6164 6472 0461 7270  1.10.in-addr.arp
	0x0050:  6100 000c 0001 0231 3007 494e 2d41 4444  a......10.IN-ADD
	0x0060:  5204 4152 5041 0000 0600 0100 0151 8000  R.ARPA.......Q..
	0x0070:  17c0 2c00 0000 0000 0000 7080 0000 1c20  ..,.......p.....
	0x0080:  0009 3a80 0001 5180                      ..:...Q.
22:29:55.388393 IP 10.181.88.186.58154 > ns1.anycast.pavlovmedia.net.domain: 6938+ PTR? 1.92.181.10.in-addr.arpa. (42)
	0x0000:  2cc8 1bbb d6c4 a078 17aa fa16 0800 4500  ,......x......E.
	0x0010:  0046 2a8b 0000 4011 d39f 0ab5 58ba 42fd  .F*...@.....X.B.
	0x0020:  d610 e32a 0035 0032 a76e 1b1a 0100 0001  ...*.5.2.n......
	0x0030:  0000 0000 0000 0131 0239 3203 3138 3102  .......1.92.181.
	0x0040:  3130 0769 6e2d 6164 6472 0461 7270 6100  10.in-addr.arpa.
	0x0050:  000c 0001                                ....
22:29:55.404558 IP ns1.anycast.pavlovmedia.net.domain > 10.181.88.186.58154: 6938 NXDomain* 0/1/0 (92)
	0x0000:  a078 17aa fa16 2cc8 1bbb d6c4 0800 4500  .x....,.......E.
	0x0010:  0078 63e0 0000 3d11 9d18 42fd d610 0ab5  .xc...=...B.....
	0x0020:  58ba 0035 e32a 0064 6f25 1b1a 8583 0001  X..5.*.do%......
	0x0030:  0000 0001 0000 0131 0239 3203 3138 3102  .......1.92.181.
	0x0040:  3130 0769 6e2d 6164 6472 0461 7270 6100  10.in-addr.arpa.
	0x0050:  000c 0001 0231 3007 494e 2d41 4444 5204  .....10.IN-ADDR.
	0x0060:  4152 5041 0000 0600 0100 0151 8000 17c0  ARPA.......Q....
	0x0070:  2a00 0000 0000 0000 7080 0000 1c20 0009  *.......p.......
	0x0080:  3a80 0001 5180                           :...Q.
22:29:55.785246 ARP, Request who-has 10.181.93.101 tell 10.181.92.1, length 42
	0x0000:  ffff ffff ffff 2cc8 1bbb d6c4 0806 0001  ......,.........
	0x0010:  0800 0604 0001 2cc8 1bbb d6c4 0ab5 5c01  ......,.......\.
	0x0020:  0000 0000 0000 0ab5 5d65 0000 0000 0000  ........]e......
	0x0030:  0000 0000 0000 0000                      ........
22:29:55.785247 IP 162.159.130.234.https > 10.181.88.186.57037: Flags [P.], seq 3750351092:3750351133, ack 3222581688, win 8, options [nop,nop,TS val 3951169816 ecr 2061439048], length 41
	0x0000:  a078 17aa fa16 2cc8 1bbb d6c4 0800 4502  .x....,.......E.
	0x0010:  005d ff67 4000 3606 bc38 a29f 82ea 0ab5  .].g@.6..8......
	0x0020:  58ba 01bb decd df89 d0f4 c014 b1b8 8018  X...............
	0x0030:  0008 189b 0000 0101 080a eb82 1118 7adf  ..............z.
	0x0040:  1048 1703 0300 2442 e9fa f59e 2f65 e14b  .H....$B..../e.K
	0x0050:  9d5b a5ab 4c24 9c51 51ef 785e a5d2 9ce2  .[..L$.QQ.x^....
	0x0060:  e15b 6f90 a70a 4111 6940 41              .[o...A.i@A
22:29:55.785316 IP 10.181.88.186.57037 > 162.159.130.234.https: Flags [.], ack 41, win 8184, options [nop,nop,TS val 2061440713 ecr 3951169816], length 0
	0x0000:  2cc8 1bbb d6c4 a078 17aa fa16 0800 4500  ,......x......E.
	0x0010:  0034 0000 4000 4006 b1cb 0ab5 58ba a29f  .4..@.@.....X...
	0x0020:  82ea decd 01bb c014 b1b8 df89 d11d 8010  ................
	0x0030:  1ff8 3c8b 0000 0101 080a 7adf 16c9 eb82  ..<.......z.....
	0x0040:  1118                                     ..
22:29:55.786916 IP 10.181.88.186.58599 > 17.248.210.70.https: Flags [S], seq 2671332811, win 65535, options [mss 1460,nop,wscale 6,nop,nop,TS val 164937385 ecr 0,sackOK,eol], length 0
	0x0000:  2cc8 1bbb d6c4 a078 17aa fa16 0800 4500  ,......x......E.
	0x0010:  0040 0000 4000 4006 f30a 0ab5 58ba 11f8  .@..@.@.....X...
	0x0020:  d246 e4e7 01bb 9f39 4dcb 0000 0000 b002  .F.....9M.......
	0x0030:  ffff 5329 0000 0204 05b4 0103 0306 0101  ..S)............
	0x0040:  080a 09d4 bea9 0000 0000 0402 0000       ..............
22:29:55.833818 IP 17.248.210.70.https > 10.181.88.186.58599: Flags [S.], seq 1339928807, ack 2671332812, win 65160, options [mss 1460,sackOK,TS val 1221066963 ecr 164937385,nop,wscale 9], length 0
	0x0000:  a078 17aa fa16 2cc8 1bbb d6c4 0800 4500  .x....,.......E.
	0x0010:  003c 0000 4000 3106 020f 11f8 d246 0ab5  .<..@.1......F..
	0x0020:  58ba 01bb e4e7 4fdd b0e7 9f39 4dcc a012  X.....O....9M...
	0x0030:  fe88 1b31 0000 0204 05b4 0402 080a 48c8  ...1..........H.
	0x0040:  00d3 09d4 bea9 0103 0309                 ..........
